{
	"data": {
		"bytecode": {
			"linkReferences": {},
			"object": "608060405273874069fa1eb16d44d622f2e0ca25eea172369bc1600260006101000a81548173ffffffffffffffffffffffffffffffffffffffff021916908373ffffffffffffffffffffffffffffffffffffffff16021790555034801561006557600080fd5b50610fbf806100756000396000f3fe60806040526004361061003f5760003560e01c80631155dfe5146100445780638642269e1461006f5780638da8f27b1461008b578063fffa7e2e146100b4575b600080fd5b34801561005057600080fd5b506100596100f7565b60405161006691906106b2565b60405180910390f35b6100896004803603810190610084919061070d565b610101565b005b34801561009757600080fd5b506100b260048036038101906100ad9190610880565b61025a565b005b3480156100c057600080fd5b506100db60048036038101906100d6919061070d565b61038f565b6040516100ee9796959493929190610a2b565b60405180910390f35b6000600154905090565b600260009054906101000a900473ffffffffffffffffffffffffffffffffffffffff1673ffffffffffffffffffffffffffffffffffffffff166323b872dd3360008085815260200190815260200160002060000160009054906101000a900473ffffffffffffffffffffffffffffffffffffffff16600080868152602001908152602001600020600501546040518463ffffffff1660e01b81526004016101aa93929190610b36565b6020604051808303816000875af11580156101c9573d6000803e3d6000fd5b505050506040513d601f19601f820116820180604052508101906101ed9190610ba5565b61022c576040517f08c379a000000000000000000000000000000000000000000000000000000000815260040161022390610c1e565b60405180910390fd5b600080828152602001908152602001600020600601600081548092919061025290610c6d565b919050555050565b60006040518060e001604052803373ffffffffffffffffffffffffffffffffffffffff16815260200187815260200186815260200185815260200184815260200183815260200182815250600080600154815260200190815260200160002060008201518160000160006101000a81548173ffffffffffffffffffffffffffffffffffffffff021916908373ffffffffffffffffffffffffffffffffffffffff16021790555060208201518160010190816103159190610eb7565b50604082015181600201908161032b9190610eb7565b5060608201518160030190816103419190610eb7565b5060808201518160040190816103579190610eb7565b5060a0820151816005015560c082015181600601559050506001600081548092919061038290610c6d565b9190505550505050505050565b600060608060608060008060008089815260200190815260200160002060000160009054906101000a900473ffffffffffffffffffffffffffffffffffffffff166000808a81526020019081526020016000206001016000808b81526020019081526020016000206002016000808c81526020019081526020016000206003016000808d81526020019081526020016000206004016000808e8152602001908152602001600020600501546000808f81526020019081526020016000206006015485805461045c90610ce4565b80601f016020809104026020016040519081016040528092919081815260200182805461048890610ce4565b80156104d55780601f106104aa576101008083540402835291602001916104d5565b820191906000526020600020905b8154815290600101906020018083116104b857829003601f168201915b505050505095508480546104e890610ce4565b80601f016020809104026020016040519081016040528092919081815260200182805461051490610ce4565b80156105615780601f1061053657610100808354040283529160200191610561565b820191906000526020600020905b81548152906001019060200180831161054457829003601f168201915b5050505050945083805461057490610ce4565b80601f01602080910402602001604051908101604052809291908181526020018280546105a090610ce4565b80156105ed5780601f106105c2576101008083540402835291602001916105ed565b820191906000526020600020905b8154815290600101906020018083116105d057829003601f168201915b5050505050935082805461060090610ce4565b80601f016020809104026020016040519081016040528092919081815260200182805461062c90610ce4565b80156106795780601f1061064e57610100808354040283529160200191610679565b820191906000526020600020905b81548152906001019060200180831161065c57829003601f168201915b505050505092509650965096509650965096509650919395979092949650565b6000819050919050565b6106ac81610699565b82525050565b60006020820190506106c760008301846106a3565b92915050565b6000604051905090565b600080fd5b600080fd5b6106ea81610699565b81146106f557600080fd5b50565b600081359050610707816106e1565b92915050565b600060208284031215610723576107226106d7565b5b6000610731848285016106f8565b91505092915050565b600080fd5b600080fd5b6000601f19601f8301169050919050565b7f4e487b7100000000000000000000000000000000000000000000000000000000600052604160045260246000fd5b61078d82610744565b810181811067ffffffffffffffff821117156107ac576107ab610755565b5b80604052505050565b60006107bf6106cd565b90506107cb8282610784565b919050565b600067ffffffffffffffff8211156107eb576107ea610755565b5b6107f482610744565b9050602081019050919050565b82818337600083830152505050565b600061082361081e846107d0565b6107b5565b90508281526020810184848401111561083f5761083e61073f565b5b61084a848285610801565b509392505050565b600082601f8301126108675761086661073a565b5b8135610877848260208601610810565b91505092915050565b600080600080600060a0868803121561089c5761089b6106d7565b5b600086013567ffffffffffffffff8111156108ba576108b96106dc565b5b6108c688828901610852565b955050602086013567ffffffffffffffff8111156108e7576108e66106dc565b5b6108f388828901610852565b945050604086013567ffffffffffffffff811115610914576109136106dc565b5b61092088828901610852565b935050606086013567ffffffffffffffff811115610941576109406106dc565b5b61094d88828901610852565b925050608061095e888289016106f8565b9150509295509295909350565b600073ffffffffffffffffffffffffffffffffffffffff82169050919050565b60006109968261096b565b9050919050565b6109a68161098b565b82525050565b600081519050919050565b600082825260208201905092915050565b60005b838110156109e65780820151818401526020810190506109cb565b60008484015250505050565b60006109fd826109ac565b610a0781856109b7565b9350610a178185602086016109c8565b610a2081610744565b840191505092915050565b600060e082019050610a40600083018a61099d565b8181036020830152610a5281896109f2565b90508181036040830152610a6681886109f2565b90508181036060830152610a7a81876109f2565b90508181036080830152610a8e81866109f2565b9050610a9d60a08301856106a3565b610aaa60c08301846106a3565b98975050505050505050565b6000610ac18261096b565b9050919050565b610ad181610ab6565b82525050565b6000819050919050565b6000610afc610af7610af28461096b565b610ad7565b61096b565b9050919050565b6000610b0e82610ae1565b9050919050565b6000610b2082610b03565b9050919050565b610b3081610b15565b82525050565b6000606082019050610b4b6000830186610ac8565b610b586020830185610b27565b610b6560408301846106a3565b949350505050565b60008115159050919050565b610b8281610b6d565b8114610b8d57600080fd5b50565b600081519050610b9f81610b79565b92915050565b600060208284031215610bbb57610bba6106d7565b5b6000610bc984828501610b90565b91505092915050565b7f5472616e73666572206661696c65640000000000000000000000000000000000600082015250565b6000610c08600f836109b7565b9150610c1382610bd2565b602082019050919050565b60006020820190508181036000830152610c3781610bfb565b9050919050565b7f4e487b7100000000000000000000000000000000000000000000000000000000600052601160045260246000fd5b6000610c7882610699565b91507fffffffffffffffffffffffffffffffffffffffffffffffffffffffffffffffff8203610caa57610ca9610c3e565b5b600182019050919050565b7f4e487b7100000000000000000000000000000000000000000000000000000000600052602260045260246000fd5b60006002820490506001821680610cfc57607f821691505b602082108103610d0f57610d0e610cb5565b5b50919050565b60008190508160005260206000209050919050565b60006020601f8301049050919050565b600082821b905092915050565b600060088302610d777fffffffffffffffffffffffffffffffffffffffffffffffffffffffffffffffff82610d3a565b610d818683610d3a565b95508019841693508086168417925050509392505050565b6000610db4610daf610daa84610699565b610ad7565b610699565b9050919050565b6000819050919050565b610dce83610d99565b610de2610dda82610dbb565b848454610d47565b825550505050565b600090565b610df7610dea565b610e02818484610dc5565b505050565b5b81811015610e2657610e1b600082610def565b600181019050610e08565b5050565b601f821115610e6b57610e3c81610d15565b610e4584610d2a565b81016020851015610e54578190505b610e68610e6085610d2a565b830182610e07565b50505b505050565b600082821c905092915050565b6000610e8e60001984600802610e70565b1980831691505092915050565b6000610ea78383610e7d565b9150826002028217905092915050565b610ec0826109ac565b67ffffffffffffffff811115610ed957610ed8610755565b5b610ee38254610ce4565b610eee828285610e2a565b600060209050601f831160018114610f215760008415610f0f578287015190505b610f198582610e9b565b865550610f81565b601f198416610f2f86610d15565b60005b82811015610f5757848901518255600182019150602085019450602081019050610f32565b86831015610f745784890151610f70601f891682610e7d565b8355505b6001600288020188555050505b50505050505056fea2646970667358221220ed523cb1d4764dde6cb647f77a47b3cac9d1da568fa08586b8a572182d13bbe064736f6c63430008120033",
			"opcodes": "PUSH1 0x80 PUSH1 0x40 MSTORE PUSH20 0x874069FA1EB16D44D622F2E0CA25EEA172369BC1 PUSH1 0x2 PUSH1 0x0 PUSH2 0x100 EXP DUP2 SLOAD DUP2 PUSH20 0xFFFFFFFFFFFFFFFFFFFFFFFFFFFFFFFFFFFFFFFF MUL NOT AND SWAP1 DUP4 PUSH20 0xFFFFFFFFFFFFFFFFFFFFFFFFFFFFFFFFFFFFFFFF AND MUL OR SWAP1 SSTORE POP CALLVALUE DUP1 ISZERO PUSH2 0x65 JUMPI PUSH1 0x0 DUP1 REVERT JUMPDEST POP PUSH2 0xFBF DUP1 PUSH2 0x75 PUSH1 0x0 CODECOPY PUSH1 0x0 RETURN INVALID PUSH1 0x80 PUSH1 0x40 MSTORE PUSH1 0x4 CALLDATASIZE LT PUSH2 0x3F JUMPI PUSH1 0x0 CALLDATALOAD PUSH1 0xE0 SHR DUP1 PUSH4 0x1155DFE5 EQ PUSH2 0x44 JUMPI DUP1 PUSH4 0x8642269E EQ PUSH2 0x6F JUMPI DUP1 PUSH4 0x8DA8F27B EQ PUSH2 0x8B JUMPI DUP1 PUSH4 0xFFFA7E2E EQ PUSH2 0xB4 JUMPI JUMPDEST PUSH1 0x0 DUP1 REVERT JUMPDEST CALLVALUE DUP1 ISZERO PUSH2 0x50 JUMPI PUSH1 0x0 DUP1 REVERT JUMPDEST POP PUSH2 0x59 PUSH2 0xF7 JUMP JUMPDEST PUSH1 0x40 MLOAD PUSH2 0x66 SWAP2 SWAP1 PUSH2 0x6B2 JUMP JUMPDEST PUSH1 0x40 MLOAD DUP1 SWAP2 SUB SWAP1 RETURN JUMPDEST PUSH2 0x89 PUSH1 0x4 DUP1 CALLDATASIZE SUB DUP2 ADD SWAP1 PUSH2 0x84 SWAP2 SWAP1 PUSH2 0x70D JUMP JUMPDEST PUSH2 0x101 JUMP JUMPDEST STOP JUMPDEST CALLVALUE DUP1 ISZERO PUSH2 0x97 JUMPI PUSH1 0x0 DUP1 REVERT JUMPDEST POP PUSH2 0xB2 PUSH1 0x4 DUP1 CALLDATASIZE SUB DUP2 ADD SWAP1 PUSH2 0xAD SWAP2 SWAP1 PUSH2 0x880 JUMP JUMPDEST PUSH2 0x25A JUMP JUMPDEST STOP JUMPDEST CALLVALUE DUP1 ISZERO PUSH2 0xC0 JUMPI PUSH1 0x0 DUP1 REVERT JUMPDEST POP PUSH2 0xDB PUSH1 0x4 DUP1 CALLDATASIZE SUB DUP2 ADD SWAP1 PUSH2 0xD6 SWAP2 SWAP1 PUSH2 0x70D JUMP JUMPDEST PUSH2 0x38F JUMP JUMPDEST PUSH1 0x40 MLOAD PUSH2 0xEE SWAP8 SWAP7 SWAP6 SWAP5 SWAP4 SWAP3 SWAP2 SWAP1 PUSH2 0xA2B JUMP JUMPDEST PUSH1 0x40 MLOAD DUP1 SWAP2 SUB SWAP1 RETURN JUMPDEST PUSH1 0x0 PUSH1 0x1 SLOAD SWAP1 POP SWAP1 JUMP JUMPDEST PUSH1 0x2 PUSH1 0x0 SWAP1 SLOAD SWAP1 PUSH2 0x100 EXP SWAP1 DIV PUSH20 0xFFFFFFFFFFFFFFFFFFFFFFFFFFFFFFFFFFFFFFFF AND PUSH20 0xFFFFFFFFFFFFFFFFFFFFFFFFFFFFFFFFFFFFFFFF AND PUSH4 0x23B872DD CALLER PUSH1 0x0 DUP1 DUP6 DUP2 MSTORE PUSH1 0x20 ADD SWAP1 DUP2 MSTORE PUSH1 0x20 ADD PUSH1 0x0 KECCAK256 PUSH1 0x0 ADD PUSH1 0x0 SWAP1 SLOAD SWAP1 PUSH2 0x100 EXP SWAP1 DIV PUSH20 0xFFFFFFFFFFFFFFFFFFFFFFFFFFFFFFFFFFFFFFFF AND PUSH1 0x0 DUP1 DUP7 DUP2 MSTORE PUSH1 0x20 ADD SWAP1 DUP2 MSTORE PUSH1 0x20 ADD PUSH1 0x0 KECCAK256 PUSH1 0x5 ADD SLOAD PUSH1 0x40 MLOAD DUP5 PUSH4 0xFFFFFFFF AND PUSH1 0xE0 SHL DUP2 MSTORE PUSH1 0x4 ADD PUSH2 0x1AA SWAP4 SWAP3 SWAP2 SWAP1 PUSH2 0xB36 JUMP JUMPDEST PUSH1 0x20 PUSH1 0x40 MLOAD DUP1 DUP4 SUB DUP2 PUSH1 0x0 DUP8 GAS CALL ISZERO DUP1 ISZERO PUSH2 0x1C9 JUMPI RETURNDATASIZE PUSH1 0x0 DUP1 RETURNDATACOPY RETURNDATASIZE PUSH1 0x0 REVERT JUMPDEST POP POP POP POP PUSH1 0x40 MLOAD RETURNDATASIZE PUSH1 0x1F NOT PUSH1 0x1F DUP3 ADD AND DUP3 ADD DUP1 PUSH1 0x40 MSTORE POP DUP2 ADD SWAP1 PUSH2 0x1ED SWAP2 SWAP1 PUSH2 0xBA5 JUMP JUMPDEST PUSH2 0x22C JUMPI PUSH1 0x40 MLOAD PUSH32 0x8C379A000000000000000000000000000000000000000000000000000000000 DUP2 MSTORE PUSH1 0x4 ADD PUSH2 0x223 SWAP1 PUSH2 0xC1E JUMP JUMPDEST PUSH1 0x40 MLOAD DUP1 SWAP2 SUB SWAP1 REVERT JUMPDEST PUSH1 0x0 DUP1 DUP3 DUP2 MSTORE PUSH1 0x20 ADD SWAP1 DUP2 MSTORE PUSH1 0x20 ADD PUSH1 0x0 KECCAK256 PUSH1 0x6 ADD PUSH1 0x0 DUP2 SLOAD DUP1 SWAP3 SWAP2 SWAP1 PUSH2 0x252 SWAP1 PUSH2 0xC6D JUMP JUMPDEST SWAP2 SWAP1 POP SSTORE POP POP JUMP JUMPDEST PUSH1 0x0 PUSH1 0x40 MLOAD DUP1 PUSH1 0xE0 ADD PUSH1 0x40 MSTORE DUP1 CALLER PUSH20 0xFFFFFFFFFFFFFFFFFFFFFFFFFFFFFFFFFFFFFFFF AND DUP2 MSTORE PUSH1 0x20 ADD DUP8 DUP2 MSTORE PUSH1 0x20 ADD DUP7 DUP2 MSTORE PUSH1 0x20 ADD DUP6 DUP2 MSTORE PUSH1 0x20 ADD DUP5 DUP2 MSTORE PUSH1 0x20 ADD DUP4 DUP2 MSTORE PUSH1 0x20 ADD DUP3 DUP2 MSTORE POP PUSH1 0x0 DUP1 PUSH1 0x1 SLOAD DUP2 MSTORE PUSH1 0x20 ADD SWAP1 DUP2 MSTORE PUSH1 0x20 ADD PUSH1 0x0 KECCAK256 PUSH1 0x0 DUP3 ADD MLOAD DUP2 PUSH1 0x0 ADD PUSH1 0x0 PUSH2 0x100 EXP DUP2 SLOAD DUP2 PUSH20 0xFFFFFFFFFFFFFFFFFFFFFFFFFFFFFFFFFFFFFFFF MUL NOT AND SWAP1 DUP4 PUSH20 0xFFFFFFFFFFFFFFFFFFFFFFFFFFFFFFFFFFFFFFFF AND MUL OR SWAP1 SSTORE POP PUSH1 0x20 DUP3 ADD MLOAD DUP2 PUSH1 0x1 ADD SWAP1 DUP2 PUSH2 0x315 SWAP2 SWAP1 PUSH2 0xEB7 JUMP JUMPDEST POP PUSH1 0x40 DUP3 ADD MLOAD DUP2 PUSH1 0x2 ADD SWAP1 DUP2 PUSH2 0x32B SWAP2 SWAP1 PUSH2 0xEB7 JUMP JUMPDEST POP PUSH1 0x60 DUP3 ADD MLOAD DUP2 PUSH1 0x3 ADD SWAP1 DUP2 PUSH2 0x341 SWAP2 SWAP1 PUSH2 0xEB7 JUMP JUMPDEST POP PUSH1 0x80 DUP3 ADD MLOAD DUP2 PUSH1 0x4 ADD SWAP1 DUP2 PUSH2 0x357 SWAP2 SWAP1 PUSH2 0xEB7 JUMP JUMPDEST POP PUSH1 0xA0 DUP3 ADD MLOAD DUP2 PUSH1 0x5 ADD SSTORE PUSH1 0xC0 DUP3 ADD MLOAD DUP2 PUSH1 0x6 ADD SSTORE SWAP1 POP POP PUSH1 0x1 PUSH1 0x0 DUP2 SLOAD DUP1 SWAP3 SWAP2 SWAP1 PUSH2 0x382 SWAP1 PUSH2 0xC6D JUMP JUMPDEST SWAP2 SWAP1 POP SSTORE POP POP POP POP POP POP POP JUMP JUMPDEST PUSH1 0x0 PUSH1 0x60 DUP1 PUSH1 0x60 DUP1 PUSH1 0x0 DUP1 PUSH1 0x0 DUP1 DUP10 DUP2 MSTORE PUSH1 0x20 ADD SWAP1 DUP2 MSTORE PUSH1 0x20 ADD PUSH1 0x0 KECCAK256 PUSH1 0x0 ADD PUSH1 0x0 SWAP1 SLOAD SWAP1 PUSH2 0x100 EXP SWAP1 DIV PUSH20 0xFFFFFFFFFFFFFFFFFFFFFFFFFFFFFFFFFFFFFFFF AND PUSH1 0x0 DUP1 DUP11 DUP2 MSTORE PUSH1 0x20 ADD SWAP1 DUP2 MSTORE PUSH1 0x20 ADD PUSH1 0x0 KECCAK256 PUSH1 0x1 ADD PUSH1 0x0 DUP1 DUP12 DUP2 MSTORE PUSH1 0x20 ADD SWAP1 DUP2 MSTORE PUSH1 0x20 ADD PUSH1 0x0 KECCAK256 PUSH1 0x2 ADD PUSH1 0x0 DUP1 DUP13 DUP2 MSTORE PUSH1 0x20 ADD SWAP1 DUP2 MSTORE PUSH1 0x20 ADD PUSH1 0x0 KECCAK256 PUSH1 0x3 ADD PUSH1 0x0 DUP1 DUP14 DUP2 MSTORE PUSH1 0x20 ADD SWAP1 DUP2 MSTORE PUSH1 0x20 ADD PUSH1 0x0 KECCAK256 PUSH1 0x4 ADD PUSH1 0x0 DUP1 DUP15 DUP2 MSTORE PUSH1 0x20 ADD SWAP1 DUP2 MSTORE PUSH1 0x20 ADD PUSH1 0x0 KECCAK256 PUSH1 0x5 ADD SLOAD PUSH1 0x0 DUP1 DUP16 DUP2 MSTORE PUSH1 0x20 ADD SWAP1 DUP2 MSTORE PUSH1 0x20 ADD PUSH1 0x0 KECCAK256 PUSH1 0x6 ADD SLOAD DUP6 DUP1 SLOAD PUSH2 0x45C SWAP1 PUSH2 0xCE4 JUMP JUMPDEST DUP1 PUSH1 0x1F ADD PUSH1 0x20 DUP1 SWAP2 DIV MUL PUSH1 0x20 ADD PUSH1 0x40 MLOAD SWAP1 DUP2 ADD PUSH1 0x40 MSTORE DUP1 SWAP3 SWAP2 SWAP1 DUP2 DUP2 MSTORE PUSH1 0x20 ADD DUP3 DUP1 SLOAD PUSH2 0x488 SWAP1 PUSH2 0xCE4 JUMP JUMPDEST DUP1 ISZERO PUSH2 0x4D5 JUMPI DUP1 PUSH1 0x1F LT PUSH2 0x4AA JUMPI PUSH2 0x100 DUP1 DUP4 SLOAD DIV MUL DUP4 MSTORE SWAP2 PUSH1 0x20 ADD SWAP2 PUSH2 0x4D5 JUMP JUMPDEST DUP3 ADD SWAP2 SWAP1 PUSH1 0x0 MSTORE PUSH1 0x20 PUSH1 0x0 KECCAK256 SWAP1 JUMPDEST DUP2 SLOAD DUP2 MSTORE SWAP1 PUSH1 0x1 ADD SWAP1 PUSH1 0x20 ADD DUP1 DUP4 GT PUSH2 0x4B8 JUMPI DUP3 SWAP1 SUB PUSH1 0x1F AND DUP3 ADD SWAP2 JUMPDEST POP POP POP POP POP SWAP6 POP DUP5 DUP1 SLOAD PUSH2 0x4E8 SWAP1 PUSH2 0xCE4 JUMP JUMPDEST DUP1 PUSH1 0x1F ADD PUSH1 0x20 DUP1 SWAP2 DIV MUL PUSH1 0x20 ADD PUSH1 0x40 MLOAD SWAP1 DUP2 ADD PUSH1 0x40 MSTORE DUP1 SWAP3 SWAP2 SWAP1 DUP2 DUP2 MSTORE PUSH1 0x20 ADD DUP3 DUP1 SLOAD PUSH2 0x514 SWAP1 PUSH2 0xCE4 JUMP JUMPDEST DUP1 ISZERO PUSH2 0x561 JUMPI DUP1 PUSH1 0x1F LT PUSH2 0x536 JUMPI PUSH2 0x100 DUP1 DUP4 SLOAD DIV MUL DUP4 MSTORE SWAP2 PUSH1 0x20 ADD SWAP2 PUSH2 0x561 JUMP JUMPDEST DUP3 ADD SWAP2 SWAP1 PUSH1 0x0 MSTORE PUSH1 0x20 PUSH1 0x0 KECCAK256 SWAP1 JUMPDEST DUP2 SLOAD DUP2 MSTORE SWAP1 PUSH1 0x1 ADD SWAP1 PUSH1 0x20 ADD DUP1 DUP4 GT PUSH2 0x544 JUMPI DUP3 SWAP1 SUB PUSH1 0x1F AND DUP3 ADD SWAP2 JUMPDEST POP POP POP POP POP SWAP5 POP DUP4 DUP1 SLOAD PUSH2 0x574 SWAP1 PUSH2 0xCE4 JUMP JUMPDEST DUP1 PUSH1 0x1F ADD PUSH1 0x20 DUP1 SWAP2 DIV MUL PUSH1 0x20 ADD PUSH1 0x40 MLOAD SWAP1 DUP2 ADD PUSH1 0x40 MSTORE DUP1 SWAP3 SWAP2 SWAP1 DUP2 DUP2 MSTORE PUSH1 0x20 ADD DUP3 DUP1 SLOAD PUSH2 0x5A0 SWAP1 PUSH2 0xCE4 JUMP JUMPDEST DUP1 ISZERO PUSH2 0x5ED JUMPI DUP1 PUSH1 0x1F LT PUSH2 0x5C2 JUMPI PUSH2 0x100 DUP1 DUP4 SLOAD DIV MUL DUP4 MSTORE SWAP2 PUSH1 0x20 ADD SWAP2 PUSH2 0x5ED JUMP JUMPDEST DUP3 ADD SWAP2 SWAP1 PUSH1 0x0 MSTORE PUSH1 0x20 PUSH1 0x0 KECCAK256 SWAP1 JUMPDEST DUP2 SLOAD DUP2 MSTORE SWAP1 PUSH1 0x1 ADD SWAP1 PUSH1 0x20 ADD DUP1 DUP4 GT PUSH2 0x5D0 JUMPI DUP3 SWAP1 SUB PUSH1 0x1F AND DUP3 ADD SWAP2 JUMPDEST POP POP POP POP POP SWAP4 POP DUP3 DUP1 SLOAD PUSH2 0x600 SWAP1 PUSH2 0xCE4 JUMP JUMPDEST DUP1 PUSH1 0x1F ADD PUSH1 0x20 DUP1 SWAP2 DIV MUL PUSH1 0x20 ADD PUSH1 0x40 MLOAD SWAP1 DUP2 ADD PUSH1 0x40 MSTORE DUP1 SWAP3 SWAP2 SWAP1 DUP2 DUP2 MSTORE PUSH1 0x20 ADD DUP3 DUP1 SLOAD PUSH2 0x62C SWAP1 PUSH2 0xCE4 JUMP JUMPDEST DUP1 ISZERO PUSH2 0x679 JUMPI DUP1 PUSH1 0x1F LT PUSH2 0x64E JUMPI PUSH2 0x100 DUP1 DUP4 SLOAD DIV MUL DUP4 MSTORE SWAP2 PUSH1 0x20 ADD SWAP2 PUSH2 0x679 JUMP JUMPDEST DUP3 ADD SWAP2 SWAP1 PUSH1 0x0 MSTORE PUSH1 0x20 PUSH1 0x0 KECCAK256 SWAP1 JUMPDEST DUP2 SLOAD DUP2 MSTORE SWAP1 PUSH1 0x1 ADD SWAP1 PUSH1 0x20 ADD DUP1 DUP4 GT PUSH2 0x65C JUMPI DUP3 SWAP1 SUB PUSH1 0x1F AND DUP3 ADD SWAP2 JUMPDEST POP POP POP POP POP SWAP3 POP SWAP7 POP SWAP7 POP SWAP7 POP SWAP7 POP SWAP7 POP SWAP7 POP SWAP7 POP SWAP2 SWAP4 SWAP6 SWAP8 SWAP1 SWAP3 SWAP5 SWAP7 POP JUMP JUMPDEST PUSH1 0x0 DUP2 SWAP1 POP SWAP2 SWAP1 POP JUMP JUMPDEST PUSH2 0x6AC DUP2 PUSH2 0x699 JUMP JUMPDEST DUP3 MSTORE POP POP JUMP JUMPDEST PUSH1 0x0 PUSH1 0x20 DUP3 ADD SWAP1 POP PUSH2 0x6C7 PUSH1 0x0 DUP4 ADD DUP5 PUSH2 0x6A3 JUMP JUMPDEST SWAP3 SWAP2 POP POP JUMP JUMPDEST PUSH1 0x0 PUSH1 0x40 MLOAD SWAP1 POP SWAP1 JUMP JUMPDEST PUSH1 0x0 DUP1 REVERT JUMPDEST PUSH1 0x0 DUP1 REVERT JUMPDEST PUSH2 0x6EA DUP2 PUSH2 0x699 JUMP JUMPDEST DUP2 EQ PUSH2 0x6F5 JUMPI PUSH1 0x0 DUP1 REVERT JUMPDEST POP JUMP JUMPDEST PUSH1 0x0 DUP2 CALLDATALOAD SWAP1 POP PUSH2 0x707 DUP2 PUSH2 0x6E1 JUMP JUMPDEST SWAP3 SWAP2 POP POP JUMP JUMPDEST PUSH1 0x0 PUSH1 0x20 DUP3 DUP5 SUB SLT ISZERO PUSH2 0x723 JUMPI PUSH2 0x722 PUSH2 0x6D7 JUMP JUMPDEST JUMPDEST PUSH1 0x0 PUSH2 0x731 DUP5 DUP3 DUP6 ADD PUSH2 0x6F8 JUMP JUMPDEST SWAP2 POP POP SWAP3 SWAP2 POP POP JUMP JUMPDEST PUSH1 0x0 DUP1 REVERT JUMPDEST PUSH1 0x0 DUP1 REVERT JUMPDEST PUSH1 0x0 PUSH1 0x1F NOT PUSH1 0x1F DUP4 ADD AND SWAP1 POP SWAP2 SWAP1 POP JUMP JUMPDEST PUSH32 0x4E487B7100000000000000000000000000000000000000000000000000000000 PUSH1 0x0 MSTORE PUSH1 0x41 PUSH1 0x4 MSTORE PUSH1 0x24 PUSH1 0x0 REVERT JUMPDEST PUSH2 0x78D DUP3 PUSH2 0x744 JUMP JUMPDEST DUP2 ADD DUP2 DUP2 LT PUSH8 0xFFFFFFFFFFFFFFFF DUP3 GT OR ISZERO PUSH2 0x7AC JUMPI PUSH2 0x7AB PUSH2 0x755 JUMP JUMPDEST JUMPDEST DUP1 PUSH1 0x40 MSTORE POP POP POP JUMP JUMPDEST PUSH1 0x0 PUSH2 0x7BF PUSH2 0x6CD JUMP JUMPDEST SWAP1 POP PUSH2 0x7CB DUP3 DUP3 PUSH2 0x784 JUMP JUMPDEST SWAP2 SWAP1 POP JUMP JUMPDEST PUSH1 0x0 PUSH8 0xFFFFFFFFFFFFFFFF DUP3 GT ISZERO PUSH2 0x7EB JUMPI PUSH2 0x7EA PUSH2 0x755 JUMP JUMPDEST JUMPDEST PUSH2 0x7F4 DUP3 PUSH2 0x744 JUMP JUMPDEST SWAP1 POP PUSH1 0x20 DUP2 ADD SWAP1 POP SWAP2 SWAP1 POP JUMP JUMPDEST DUP3 DUP2 DUP4 CALLDATACOPY PUSH1 0x0 DUP4 DUP4 ADD MSTORE POP POP POP JUMP JUMPDEST PUSH1 0x0 PUSH2 0x823 PUSH2 0x81E DUP5 PUSH2 0x7D0 JUMP JUMPDEST PUSH2 0x7B5 JUMP JUMPDEST SWAP1 POP DUP3 DUP2 MSTORE PUSH1 0x20 DUP2 ADD DUP5 DUP5 DUP5 ADD GT ISZERO PUSH2 0x83F JUMPI PUSH2 0x83E PUSH2 0x73F JUMP JUMPDEST JUMPDEST PUSH2 0x84A DUP5 DUP3 DUP6 PUSH2 0x801 JUMP JUMPDEST POP SWAP4 SWAP3 POP POP POP JUMP JUMPDEST PUSH1 0x0 DUP3 PUSH1 0x1F DUP4 ADD SLT PUSH2 0x867 JUMPI PUSH2 0x866 PUSH2 0x73A JUMP JUMPDEST JUMPDEST DUP2 CALLDATALOAD PUSH2 0x877 DUP5 DUP3 PUSH1 0x20 DUP7 ADD PUSH2 0x810 JUMP JUMPDEST SWAP2 POP POP SWAP3 SWAP2 POP POP JUMP JUMPDEST PUSH1 0x0 DUP1 PUSH1 0x0 DUP1 PUSH1 0x0 PUSH1 0xA0 DUP7 DUP9 SUB SLT ISZERO PUSH2 0x89C JUMPI PUSH2 0x89B PUSH2 0x6D7 JUMP JUMPDEST JUMPDEST PUSH1 0x0 DUP7 ADD CALLDATALOAD PUSH8 0xFFFFFFFFFFFFFFFF DUP2 GT ISZERO PUSH2 0x8BA JUMPI PUSH2 0x8B9 PUSH2 0x6DC JUMP JUMPDEST JUMPDEST PUSH2 0x8C6 DUP9 DUP3 DUP10 ADD PUSH2 0x852 JUMP JUMPDEST SWAP6 POP POP PUSH1 0x20 DUP7 ADD CALLDATALOAD PUSH8 0xFFFFFFFFFFFFFFFF DUP2 GT ISZERO PUSH2 0x8E7 JUMPI PUSH2 0x8E6 PUSH2 0x6DC JUMP JUMPDEST JUMPDEST PUSH2 0x8F3 DUP9 DUP3 DUP10 ADD PUSH2 0x852 JUMP JUMPDEST SWAP5 POP POP PUSH1 0x40 DUP7 ADD CALLDATALOAD PUSH8 0xFFFFFFFFFFFFFFFF DUP2 GT ISZERO PUSH2 0x914 JUMPI PUSH2 0x913 PUSH2 0x6DC JUMP JUMPDEST JUMPDEST PUSH2 0x920 DUP9 DUP3 DUP10 ADD PUSH2 0x852 JUMP JUMPDEST SWAP4 POP POP PUSH1 0x60 DUP7 ADD CALLDATALOAD PUSH8 0xFFFFFFFFFFFFFFFF DUP2 GT ISZERO PUSH2 0x941 JUMPI PUSH2 0x940 PUSH2 0x6DC JUMP JUMPDEST JUMPDEST PUSH2 0x94D DUP9 DUP3 DUP10 ADD PUSH2 0x852 JUMP JUMPDEST SWAP3 POP POP PUSH1 0x80 PUSH2 0x95E DUP9 DUP3 DUP10 ADD PUSH2 0x6F8 JUMP JUMPDEST SWAP2 POP POP SWAP3 SWAP6 POP SWAP3 SWAP6 SWAP1 SWAP4 POP JUMP JUMPDEST PUSH1 0x0 PUSH20 0xFFFFFFFFFFFFFFFFFFFFFFFFFFFFFFFFFFFFFFFF DUP3 AND SWAP1 POP SWAP2 SWAP1 POP JUMP JUMPDEST PUSH1 0x0 PUSH2 0x996 DUP3 PUSH2 0x96B JUMP JUMPDEST SWAP1 POP SWAP2 SWAP1 POP JUMP JUMPDEST PUSH2 0x9A6 DUP2 PUSH2 0x98B JUMP JUMPDEST DUP3 MSTORE POP POP JUMP JUMPDEST PUSH1 0x0 DUP2 MLOAD SWAP1 POP SWAP2 SWAP1 POP JUMP JUMPDEST PUSH1 0x0 DUP3 DUP3 MSTORE PUSH1 0x20 DUP3 ADD SWAP1 POP SWAP3 SWAP2 POP POP JUMP JUMPDEST PUSH1 0x0 JUMPDEST DUP4 DUP2 LT ISZERO PUSH2 0x9E6 JUMPI DUP1 DUP3 ADD MLOAD DUP2 DUP5 ADD MSTORE PUSH1 0x20 DUP2 ADD SWAP1 POP PUSH2 0x9CB JUMP JUMPDEST PUSH1 0x0 DUP5 DUP5 ADD MSTORE POP POP POP POP JUMP JUMPDEST PUSH1 0x0 PUSH2 0x9FD DUP3 PUSH2 0x9AC JUMP JUMPDEST PUSH2 0xA07 DUP2 DUP6 PUSH2 0x9B7 JUMP JUMPDEST SWAP4 POP PUSH2 0xA17 DUP2 DUP6 PUSH1 0x20 DUP7 ADD PUSH2 0x9C8 JUMP JUMPDEST PUSH2 0xA20 DUP2 PUSH2 0x744 JUMP JUMPDEST DUP5 ADD SWAP2 POP POP SWAP3 SWAP2 POP POP JUMP JUMPDEST PUSH1 0x0 PUSH1 0xE0 DUP3 ADD SWAP1 POP PUSH2 0xA40 PUSH1 0x0 DUP4 ADD DUP11 PUSH2 0x99D JUMP JUMPDEST DUP2 DUP2 SUB PUSH1 0x20 DUP4 ADD MSTORE PUSH2 0xA52 DUP2 DUP10 PUSH2 0x9F2 JUMP JUMPDEST SWAP1 POP DUP2 DUP2 SUB PUSH1 0x40 DUP4 ADD MSTORE PUSH2 0xA66 DUP2 DUP9 PUSH2 0x9F2 JUMP JUMPDEST SWAP1 POP DUP2 DUP2 SUB PUSH1 0x60 DUP4 ADD MSTORE PUSH2 0xA7A DUP2 DUP8 PUSH2 0x9F2 JUMP JUMPDEST SWAP1 POP DUP2 DUP2 SUB PUSH1 0x80 DUP4 ADD MSTORE PUSH2 0xA8E DUP2 DUP7 PUSH2 0x9F2 JUMP JUMPDEST SWAP1 POP PUSH2 0xA9D PUSH1 0xA0 DUP4 ADD DUP6 PUSH2 0x6A3 JUMP JUMPDEST PUSH2 0xAAA PUSH1 0xC0 DUP4 ADD DUP5 PUSH2 0x6A3 JUMP JUMPDEST SWAP9 SWAP8 POP POP POP POP POP POP POP POP JUMP JUMPDEST PUSH1 0x0 PUSH2 0xAC1 DUP3 PUSH2 0x96B JUMP JUMPDEST SWAP1 POP SWAP2 SWAP1 POP JUMP JUMPDEST PUSH2 0xAD1 DUP2 PUSH2 0xAB6 JUMP JUMPDEST DUP3 MSTORE POP POP JUMP JUMPDEST PUSH1 0x0 DUP2 SWAP1 POP SWAP2 SWAP1 POP JUMP JUMPDEST PUSH1 0x0 PUSH2 0xAFC PUSH2 0xAF7 PUSH2 0xAF2 DUP5 PUSH2 0x96B JUMP JUMPDEST PUSH2 0xAD7 JUMP JUMPDEST PUSH2 0x96B JUMP JUMPDEST SWAP1 POP SWAP2 SWAP1 POP JUMP JUMPDEST PUSH1 0x0 PUSH2 0xB0E DUP3 PUSH2 0xAE1 JUMP JUMPDEST SWAP1 POP SWAP2 SWAP1 POP JUMP JUMPDEST PUSH1 0x0 PUSH2 0xB20 DUP3 PUSH2 0xB03 JUMP JUMPDEST SWAP1 POP SWAP2 SWAP1 POP JUMP JUMPDEST PUSH2 0xB30 DUP2 PUSH2 0xB15 JUMP JUMPDEST DUP3 MSTORE POP POP JUMP JUMPDEST PUSH1 0x0 PUSH1 0x60 DUP3 ADD SWAP1 POP PUSH2 0xB4B PUSH1 0x0 DUP4 ADD DUP7 PUSH2 0xAC8 JUMP JUMPDEST PUSH2 0xB58 PUSH1 0x20 DUP4 ADD DUP6 PUSH2 0xB27 JUMP JUMPDEST PUSH2 0xB65 PUSH1 0x40 DUP4 ADD DUP5 PUSH2 0x6A3 JUMP JUMPDEST SWAP5 SWAP4 POP POP POP POP JUMP JUMPDEST PUSH1 0x0 DUP2 ISZERO ISZERO SWAP1 POP SWAP2 SWAP1 POP JUMP JUMPDEST PUSH2 0xB82 DUP2 PUSH2 0xB6D JUMP JUMPDEST DUP2 EQ PUSH2 0xB8D JUMPI PUSH1 0x0 DUP1 REVERT JUMPDEST POP JUMP JUMPDEST PUSH1 0x0 DUP2 MLOAD SWAP1 POP PUSH2 0xB9F DUP2 PUSH2 0xB79 JUMP JUMPDEST SWAP3 SWAP2 POP POP JUMP JUMPDEST PUSH1 0x0 PUSH1 0x20 DUP3 DUP5 SUB SLT ISZERO PUSH2 0xBBB JUMPI PUSH2 0xBBA PUSH2 0x6D7 JUMP JUMPDEST JUMPDEST PUSH1 0x0 PUSH2 0xBC9 DUP5 DUP3 DUP6 ADD PUSH2 0xB90 JUMP JUMPDEST SWAP2 POP POP SWAP3 SWAP2 POP POP JUMP JUMPDEST PUSH32 0x5472616E73666572206661696C65640000000000000000000000000000000000 PUSH1 0x0 DUP3 ADD MSTORE POP JUMP JUMPDEST PUSH1 0x0 PUSH2 0xC08 PUSH1 0xF DUP4 PUSH2 0x9B7 JUMP JUMPDEST SWAP2 POP PUSH2 0xC13 DUP3 PUSH2 0xBD2 JUMP JUMPDEST PUSH1 0x20 DUP3 ADD SWAP1 POP SWAP2 SWAP1 POP JUMP JUMPDEST PUSH1 0x0 PUSH1 0x20 DUP3 ADD SWAP1 POP DUP2 DUP2 SUB PUSH1 0x0 DUP4 ADD MSTORE PUSH2 0xC37 DUP2 PUSH2 0xBFB JUMP JUMPDEST SWAP1 POP SWAP2 SWAP1 POP JUMP JUMPDEST PUSH32 0x4E487B7100000000000000000000000000000000000000000000000000000000 PUSH1 0x0 MSTORE PUSH1 0x11 PUSH1 0x4 MSTORE PUSH1 0x24 PUSH1 0x0 REVERT JUMPDEST PUSH1 0x0 PUSH2 0xC78 DUP3 PUSH2 0x699 JUMP JUMPDEST SWAP2 POP PUSH32 0xFFFFFFFFFFFFFFFFFFFFFFFFFFFFFFFFFFFFFFFFFFFFFFFFFFFFFFFFFFFFFFFF DUP3 SUB PUSH2 0xCAA JUMPI PUSH2 0xCA9 PUSH2 0xC3E JUMP JUMPDEST JUMPDEST PUSH1 0x1 DUP3 ADD SWAP1 POP SWAP2 SWAP1 POP JUMP JUMPDEST PUSH32 0x4E487B7100000000000000000000000000000000000000000000000000000000 PUSH1 0x0 MSTORE PUSH1 0x22 PUSH1 0x4 MSTORE PUSH1 0x24 PUSH1 0x0 REVERT JUMPDEST PUSH1 0x0 PUSH1 0x2 DUP3 DIV SWAP1 POP PUSH1 0x1 DUP3 AND DUP1 PUSH2 0xCFC JUMPI PUSH1 0x7F DUP3 AND SWAP2 POP JUMPDEST PUSH1 0x20 DUP3 LT DUP2 SUB PUSH2 0xD0F JUMPI PUSH2 0xD0E PUSH2 0xCB5 JUMP JUMPDEST JUMPDEST POP SWAP2 SWAP1 POP JUMP JUMPDEST PUSH1 0x0 DUP2 SWAP1 POP DUP2 PUSH1 0x0 MSTORE PUSH1 0x20 PUSH1 0x0 KECCAK256 SWAP1 POP SWAP2 SWAP1 POP JUMP JUMPDEST PUSH1 0x0 PUSH1 0x20 PUSH1 0x1F DUP4 ADD DIV SWAP1 POP SWAP2 SWAP1 POP JUMP JUMPDEST PUSH1 0x0 DUP3 DUP3 SHL SWAP1 POP SWAP3 SWAP2 POP POP JUMP JUMPDEST PUSH1 0x0 PUSH1 0x8 DUP4 MUL PUSH2 0xD77 PUSH32 0xFFFFFFFFFFFFFFFFFFFFFFFFFFFFFFFFFFFFFFFFFFFFFFFFFFFFFFFFFFFFFFFF DUP3 PUSH2 0xD3A JUMP JUMPDEST PUSH2 0xD81 DUP7 DUP4 PUSH2 0xD3A JUMP JUMPDEST SWAP6 POP DUP1 NOT DUP5 AND SWAP4 POP DUP1 DUP7 AND DUP5 OR SWAP3 POP POP POP SWAP4 SWAP3 POP POP POP JUMP JUMPDEST PUSH1 0x0 PUSH2 0xDB4 PUSH2 0xDAF PUSH2 0xDAA DUP5 PUSH2 0x699 JUMP JUMPDEST PUSH2 0xAD7 JUMP JUMPDEST PUSH2 0x699 JUMP JUMPDEST SWAP1 POP SWAP2 SWAP1 POP JUMP JUMPDEST PUSH1 0x0 DUP2 SWAP1 POP SWAP2 SWAP1 POP JUMP JUMPDEST PUSH2 0xDCE DUP4 PUSH2 0xD99 JUMP JUMPDEST PUSH2 0xDE2 PUSH2 0xDDA DUP3 PUSH2 0xDBB JUMP JUMPDEST DUP5 DUP5 SLOAD PUSH2 0xD47 JUMP JUMPDEST DUP3 SSTORE POP POP POP POP JUMP JUMPDEST PUSH1 0x0 SWAP1 JUMP JUMPDEST PUSH2 0xDF7 PUSH2 0xDEA JUMP JUMPDEST PUSH2 0xE02 DUP2 DUP5 DUP5 PUSH2 0xDC5 JUMP JUMPDEST POP POP POP JUMP JUMPDEST JUMPDEST DUP2 DUP2 LT ISZERO PUSH2 0xE26 JUMPI PUSH2 0xE1B PUSH1 0x0 DUP3 PUSH2 0xDEF JUMP JUMPDEST PUSH1 0x1 DUP2 ADD SWAP1 POP PUSH2 0xE08 JUMP JUMPDEST POP POP JUMP JUMPDEST PUSH1 0x1F DUP3 GT ISZERO PUSH2 0xE6B JUMPI PUSH2 0xE3C DUP2 PUSH2 0xD15 JUMP JUMPDEST PUSH2 0xE45 DUP5 PUSH2 0xD2A JUMP JUMPDEST DUP2 ADD PUSH1 0x20 DUP6 LT ISZERO PUSH2 0xE54 JUMPI DUP2 SWAP1 POP JUMPDEST PUSH2 0xE68 PUSH2 0xE60 DUP6 PUSH2 0xD2A JUMP JUMPDEST DUP4 ADD DUP3 PUSH2 0xE07 JUMP JUMPDEST POP POP JUMPDEST POP POP POP JUMP JUMPDEST PUSH1 0x0 DUP3 DUP3 SHR SWAP1 POP SWAP3 SWAP2 POP POP JUMP JUMPDEST PUSH1 0x0 PUSH2 0xE8E PUSH1 0x0 NOT DUP5 PUSH1 0x8 MUL PUSH2 0xE70 JUMP JUMPDEST NOT DUP1 DUP4 AND SWAP2 POP POP SWAP3 SWAP2 POP POP JUMP JUMPDEST PUSH1 0x0 PUSH2 0xEA7 DUP4 DUP4 PUSH2 0xE7D JUMP JUMPDEST SWAP2 POP DUP3 PUSH1 0x2 MUL DUP3 OR SWAP1 POP SWAP3 SWAP2 POP POP JUMP JUMPDEST PUSH2 0xEC0 DUP3 PUSH2 0x9AC JUMP JUMPDEST PUSH8 0xFFFFFFFFFFFFFFFF DUP2 GT ISZERO PUSH2 0xED9 JUMPI PUSH2 0xED8 PUSH2 0x755 JUMP JUMPDEST JUMPDEST PUSH2 0xEE3 DUP3 SLOAD PUSH2 0xCE4 JUMP JUMPDEST PUSH2 0xEEE DUP3 DUP3 DUP6 PUSH2 0xE2A JUMP JUMPDEST PUSH1 0x0 PUSH1 0x20 SWAP1 POP PUSH1 0x1F DUP4 GT PUSH1 0x1 DUP2 EQ PUSH2 0xF21 JUMPI PUSH1 0x0 DUP5 ISZERO PUSH2 0xF0F JUMPI DUP3 DUP8 ADD MLOAD SWAP1 POP JUMPDEST PUSH2 0xF19 DUP6 DUP3 PUSH2 0xE9B JUMP JUMPDEST DUP7 SSTORE POP PUSH2 0xF81 JUMP JUMPDEST PUSH1 0x1F NOT DUP5 AND PUSH2 0xF2F DUP7 PUSH2 0xD15 JUMP JUMPDEST PUSH1 0x0 JUMPDEST DUP3 DUP2 LT ISZERO PUSH2 0xF57 JUMPI DUP5 DUP10 ADD MLOAD DUP3 SSTORE PUSH1 0x1 DUP3 ADD SWAP2 POP PUSH1 0x20 DUP6 ADD SWAP5 POP PUSH1 0x20 DUP2 ADD SWAP1 POP PUSH2 0xF32 JUMP JUMPDEST DUP7 DUP4 LT ISZERO PUSH2 0xF74 JUMPI DUP5 DUP10 ADD MLOAD PUSH2 0xF70 PUSH1 0x1F DUP10 AND DUP3 PUSH2 0xE7D JUMP JUMPDEST DUP4 SSTORE POP JUMPDEST PUSH1 0x1 PUSH1 0x2 DUP9 MUL ADD DUP9 SSTORE POP POP POP JUMPDEST POP POP POP POP POP POP JUMP INVALID LOG2 PUSH5 0x6970667358 0x22 SLT KECCAK256 0xED MSTORE EXTCODECOPY 0xB1 0xD4 PUSH23 0x4DDE6CB647F77A47B3CAC9D1DA568FA08586B8A572182D SGT 0xBB 0xE0 PUSH5 0x736F6C6343 STOP ADDMOD SLT STOP CALLER "
		},
		"gasEstimates": {
			"creation": {
				"codeDepositCost": "806200",
				"executionCost": "25105",
				"totalCost": "831305"
			},
			"external": {
				"buyProduct(uint256)": "infinite",
				"getProductsLength()": "2415",
				"readProduct(uint256)": "infinite",
				"writeProduct(string,string,string,string,uint256)": "infinite"
			}
		},
		"methodIdentifiers": {
			"buyProduct(uint256)": "8642269e",
			"getProductsLength()": "1155dfe5",
			"readProduct(uint256)": "fffa7e2e",
			"writeProduct(string,string,string,string,uint256)": "8da8f27b"
		}
	},
	"abi": [
		{
			"inputs": [
				{
					"internalType": "uint256",
					"name": "_index",
					"type": "uint256"
				}
			],
			"name": "buyProduct",
			"outputs": [],
			"stateMutability": "payable",
			"type": "function"
		},
		{
			"inputs": [],
			"name": "getProductsLength",
			"outputs": [
				{
					"internalType": "uint256",
					"name": "",
					"type": "uint256"
				}
			],
			"stateMutability": "view",
			"type": "function"
		},
		{
			"inputs": [
				{
					"internalType": "uint256",
					"name": "_index",
					"type": "uint256"
				}
			],
			"name": "readProduct",
			"outputs": [
				{
					"internalType": "address payable",
					"name": "",
					"type": "address"
				},
				{
					"internalType": "string",
					"name": "",
					"type": "string"
				},
				{
					"internalType": "string",
					"name": "",
					"type": "string"
				},
				{
					"internalType": "string",
					"name": "",
					"type": "string"
				},
				{
					"internalType": "string",
					"name": "",
					"type": "string"
				},
				{
					"internalType": "uint256",
					"name": "",
					"type": "uint256"
				},
				{
					"internalType": "uint256",
					"name": "",
					"type": "uint256"
				}
			],
			"stateMutability": "view",
			"type": "function"
		},
		{
			"inputs": [
				{
					"internalType": "string",
					"name": "_name",
					"type": "string"
				},
				{
					"internalType": "string",
					"name": "_image",
					"type": "string"
				},
				{
					"internalType": "string",
					"name": "_description",
					"type": "string"
				},
				{
					"internalType": "string",
					"name": "_location",
					"type": "string"
				},
				{
					"internalType": "uint256",
					"name": "_price",
					"type": "uint256"
				}
			],
			"name": "writeProduct",
			"outputs": [],
			"stateMutability": "nonpayable",
			"type": "function"
		}
	]
}